:020000040800F2
:10000000E00700203902000859170008C114000851
:1000100055170008E5030008291800080000000033
:100020000000000000000000000000006117000850
:10003000E9030008000000005D17000865170008CC
:10004000530200085302000853020008530200083C
:10005000530200085302000853020008530200082C
:10006000530200085302000853020008530200081C
:10007000530200085302000853020008530200080C
:100080005302000853020008530200080000000059
:100090000000000000000000000000005302000803
:1000A00053020008530200085302000853020008DC
:1000B00053020008530200085302000853020008CC
:1000C00053020008530200085302000853020008BC
:1000D0005302000853020008530200080000000009
:1000E00053020008530200085302000800000000F9
:1000F00000000000000000000000000053020008A3
:1001000000000000530200085302000853020008D8
:1001100000000000000000000000000000000000DF
:10012000530200085302000853020008530200085B
:100130005302000800000000000000000000000062
:100140000000000000000000000000005302000852
:10015000530200085302000853020008530200082B
:1001600053020008530200080000000000000000D5
:10017000000000000000000000000000000000007F
:100180000000000053020008000000000000000012
:10019000530200085302000800F002F800F03CF897
:1001A0000AA090E8000C82448344AAF10107DA45D2
:1001B00001D100F031F8AFF2090EBAE80F0013F0E8
:1001C000010F18BFFB1A43F001031847D8160000AF
:1001D000F8160000103A24BF78C878C1FAD8520740
:1001E00024BF30C830C144BF04680C6070470000B1
:1001F0000023002400250026103A28BF78C1FBD830
:10020000520728BF30C148BF0B6070471FB501F0CF
:1002100034FB1FBD10B510BD00F0A9F81146FFF763
:10022000F5FF01F003FB00F0C7F803B4FFF7F2FF9E
:1002300003BC00F0CFF80000094880470948004798
:10024000FEE7FEE7FEE7FEE7FEE7FEE7FEE7FEE786
:10025000FEE7FEE704480549054A064B70470000E3
:100260001518000899010008E0010020E0070020AF
:10027000E0030020E003002053EA020C00F0698054
:100280002DE9F04B4FF00006002B1FBFB3FA83F5AA
:1002900003FA05F424FA05F65E4012BF1643B2FADB
:1002A00082F502FA05F4C5F120051EBF22FA05FC0D
:1002B00044EA0C04203556EA044C4FEA144418BFB3
:1002C000641C4FF000084FF00009904271EB030CE2
:1002D00039D3002919BFB1FA81F701FA07F6B0FA4C
:1002E00080F700FA07F6C7F120071EBF20FA07FCC7
:1002F00046EA0C062037B6FBF4FCA7EB0507103FD7
:1003000007F01F0BCBF120062CFA06F60CFA0BFBBC
:1003100044BFB3460026202FA4BF5E464FF0000B1B
:100320005BEA060C08BF4FF0010B19EB0B0948EB19
:100330000608ABFB027C06FB02CC0BFB03CCC01B0C
:1003400071EB0C01C1E70B46024641464846BDE849
:10035000F08B13B5084318BF4FF0FF300146AFF3E1
:100360000080BDE81C407047704770477047754675
:1003700000F02CF8AE4605006946534620F0070011
:10038000854618B020B5FFF765FFBDE820404FF067
:1003900000064FF000074FF000084FF0000BAC468E
:1003A000ACE8C009ACE8C009ACE8C009ACE8C009D9
:1003B00021F007018D46704710B50446AFF3008069
:1003C0002046BDE81040FFF730BF000000487047EE
:1003D0001000002001491820ABBEFEE726000200F5
:1003E00070470000FEE7000070470000EFF3108048
:1003F00072B600BFFEE700002DE9F04F82B000F1B9
:100400003E4241F2000502F1FF77C4F202050722E5
:100410004FEAB726A84208BF0422042E38BF4FEA8D
:10042000B7224FF0010A002400274FF00008009285
:1004300008E000BF023708F10108202F04F104048E
:1004400000F0B4800E680AFA08F916EA090FF1D034
:10045000D1F804A00AF0030BABF10106012E17D866
:100460000322866802FA07FECA6826EA0E06BA4028
:10047000324382604268CAF3001522EA090205FA93
:1004800008F54FEA480C6FEA0E062A4342600BE07B
:100490000322BA40D643BBF1030FBC4604D1BC468D
:1004A0004FF0030B22E000BFC2688D68324005FAAE
:1004B0000CF52A43BBF1020FC26017D16FF00302A3
:1004C00002EA5802024404F01C030F25D2F820E08F
:1004D00005FA03FA0D692EEA0A0E05FA03F343EA58
:1004E0000E031362D1F804A00AF0030B02680BFAA2
:1004F0000CF332401A431AF4403F4FF0010A0260F5
:1005000098D0002243F644030192C4F202031A6811
:1005100043F6004E42F480421A601A68C4F2010E9B
:1005200002F480420192019A28F003024FF6084C2F
:100530007244CFF6FF7C52F80C3004F00C060F2505
:10054000B540AB43009D05FA06F6334342F80C3044
:10055000DEF808204B6842EA090643F60C4CDD023F
:1005600058BF22EA0906CEF80860C4F2010CDCF894
:1005700000209D0242EA090658BF22EA0906CCF88B
:100580000060DEF804209D0342EA090658BF22EA13
:100590000906CEF80460DEF80020DB0342EA090613
:1005A00058BF22EA0906CEF8006043E702B0BDE872
:1005B000F08F000040F2D810C2F2000000687047CF
:1005C0002DE9F04186B00446006844F20C058168CC
:1005D00043F20448C4F20005C4F20008059108F58E
:1005E0007F77291FB84208BF08F10401096808F5A0
:1005F000406604914168B8420391314604BF43F21A
:100600000441C4F200010A680292626842F4007276
:10061000B2F5007F4CD10599890744BF03995FEA81
:1006200001617BD40498C00721D0029840061ED5F2
:100630002068E16AB84208BF08F108052A6821F875
:10064000022BE162618E01396186618E79B9B8420F
:10065000304608BF4046016821F060010160608DAE
:1006600028B9012084F84100204600F0E5F80498FC
:10067000400644BF02985FEA80606BD4059800078B
:1006800044BF03985FEA806044D520684168B8425F
:1006900021F0A001416008BF4646316821F06001A9
:1006A000316000210191806801900198B6E000BF9F
:1006B000049A920744BF029A5FEA02626AD40598DC
:1006C000C00719D00398400616D52068E16AC268B1
:1006D00021F8022BE162618E01396186618E59B980
:1006E000416821F060014160608D28B9012084F8E3
:1006F0004100204600F0A0F80598400644BF03984A
:100700005FEA806066D40498000744BF02985FEAFD
:10071000806077D406B0BDE8F08100BF616A31F82F
:10072000022B6162C260618D01396185618D002992
:100730007FF478AF416821F0A0014160608E00280D
:100740007FF470AF012084F84100204600F074F877
:1007500068E700BF20683146B84208BF41460A68D2
:1007600022F060020A60416821F0A001416000218E
:100770000191C1680191806801900198012084F87D
:100780004100606C40F002006064204600F056F8C2
:1007900074E700BF626AB84232F8023B626208BF87
:1007A00008F108052B60608D01386085608D002898
:1007B0007FF485AF086820F0A0000860608E0028F4
:1007C0007FF47DAF012084F84100204600F034F82A
:1007D00075E700BF20684168B84221F060014160C0
:1007E000304608BF4046016821F0A00101600120A9
:1007F00084F84100606C40F002006064204600F024
:100800001DF880E72068B84208BF4646316821F0ED
:10081000A0013160416821F060014160012084F84D
:100820004100606C40F004012046616406B0BDE800
:10083000F04100F003B8000070470000704700006E
:10084000F0B581B0002852D0044690F8410050B96C
:10085000002084F8400041F2C540C0F6000060630B
:10086000204600F09DF8022184F84110206862695A
:10087000C36940F6BF75AB43022AC361016203D16D
:10088000216902223CE000BFD4E9020120220029B4
:1008900008BF1022002121284FF0010038BF01219C
:1008A00002FA01F500F07AFA2169B1F5007F04D16E
:1008B000E268002A0CBFED00AD00B0FBF5F0626904
:1008C00000EB80004000B0FBF2F04CF6CD4205306A
:1008D000CCF6CC42A0FB02206FF0FF0202EB10121C
:1008E00012F1FE0F06D2606C40F01000606401202F
:1008F00001B0F0BD020900F00803206842EA43128B
:1009000011430162C16940F6BF7C21EA0C05D4E9BC
:100910000123E168D4F818E00B4343EA02012943BC
:1009200041EA0E0141F40061C161216A01292FD120
:1009300040F2C151C0F60001616343F21C41C4F2B0
:10094000000101F5797501F54066A84204BF43F244
:100950001C46C4F200063768A84227EA0C07376035
:1009600044F22007C4F2000708BF0F1D02203860C0
:100970006FF400714FF4006730680A4208BF4FF40B
:10098000106743EA070141EA0E01084380B2306074
:1009900000200121606484F8411001B0F0BD000026
:1009A0002DE9F04186B0006842F6FF71C4F2010102
:1009B00088424FF000010591CDE90311CDE9011105
:1009C0003CDD45F20001C4F20101884200F08E8056
:1009D00043F20041C4F20101884200F0C58043F2B5
:1009E0000001C4F20101884240F02A81002043F650
:1009F00030010090C4F202014A6942F480524A6117
:100A00004A6902F480520092009A00900A6842F00B
:100A100001020A60096801F0010100910099B0210A
:100A200001910221CDE9021004900520059040F2C9
:100A30000040C4F20200A0F58064FDE043F600012E
:100A4000C4F20001884200F0C58043F60041C4F2C0
:100A50000001884240F0F480002643F63000009602
:100A6000C4F20200016940F2004441F40041016116
:100A70000169C4F2020401F400410091009900965A
:100A8000016801AD41F0010101600168022701F038
:100A9000010100910099009601684FF0060841F0AD
:100AA000020101600068294600F0020000900098F1
:100AB0004FF400400190A4F58060CDE902760496E1
:100AC000CDF81480FFF798FC2820CDE901072046D7
:100AD0002946CDE90366CDF81480FFF78DFC102080
:100AE000CDE901070720CDE90366A4E0002543F620
:100AF00030000095C4F20200416940F2004441F424
:100B0000801141614169C4F2020401F48011009135
:100B1000009900950168022641F002010160016818
:100B2000062701F00201009100990095016841F04B
:100B300001010160006801A900F001000090009827
:100B4000032001902046CDE9026504950597FFF743
:100B500053FC4FF48060A4F58064CDE90106CDE933
:100B60000355059768E000BF002543F63000009567
:100B7000C4F20200416940F2004441F40051416175
:100B80004169C4F2020401F40051009100990095FA
:100B90000168022641F001010160016801F00101D4
:100BA000009100990095016841F002010160006820
:100BB00001A900F002000090009805200590A4F51E
:100BC0008060CDE90166CDE90355FFF715FC4FF4D0
:100BD00040502BE0002543F630000095C4F202009F
:100BE000016940F2004441F4804101610169C4F2AD
:100BF000020401F4804100910099009501680226E9
:100C000041F002010160006801A900F002000090BB
:100C100000984FF406400190052005902046CDE94C
:100C200002650495FFF7E8FB4FF480400190062031
:100C3000029603950495059001A92046FFF7DCFB79
:100C400006B0BDE8F081000070470000704700006A
:100C500040F2000040F2D811C2F20000C2F20001DE
:100C600000780A68104408607047000080B543F6B9
:100C70000040C4F20200016841F4007101600168A3
:100C800041F480610160016841F4807101600320DA
:100C900000F074F80F2000F005F800F027F80020AD
:100CA00080BD000070B540F20006C2F2000640F2BE
:100CB00008013278C2F200014FF47A730968B3FB7D
:100CC000F2F20446B1FBF2F1084600F0E3FB0F2C10
:100CD0004FF0010508D838B94FF0FF302146002207
:100CE000002500F01FF87460284670BD82B0002017
:100CF00043F640010190C4F202014A6842F4804286
:100D00004A604A6802F480420192019A00900868A1
:100D100040F080500860086800F080500090009813
:100D200002B0704710B54EF60C5CCEF2000CDCF849
:100D30000030C3F3022E8EF00704042C28BF0424D5
:100D4000BEF103034FF0FF3E0EFA04F438BF002358
:100D5000A14399400EFA03F39A43114300F00F02A6
:100D6000043A624409010C3200F16043B0F1FF3FE4
:100D7000C8BF03F56442117010BD00004EF60C515F
:100D8000CEF200010A684FF6FF031A4060F30A2210
:100D900042F0806040F0FD7008607047012823D168
:100DA00043F68400C4F2020050F87C1C09021BD4F4
:100DB00050F8801C0268490247F64001C0F27D11DC
:100DC00002F03F025CBF42F20041C0F2F40103684E
:100DD000B1FBF2F10068C3F388125143C0F3027013
:100DE000B1FBF0F0704700BF00207047F0B581B054
:100DF0000446006810F0050F2DD06827C4F247277D
:100E000043F670060020C4F202063860FFF7D2FBFA
:100E1000054600BF56F8700C000105D5FFF7CAFB68
:100E2000401B0228F6D93DE0221D07CA40EA811086
:100E300040EA0270706101203860FFF7BBFB054695
:100E400056F8700C000105D4FFF7B4FB401B0228D4
:100E5000F6D927E02068810758D543F670060020B0
:100E6000C4F20206009056F8300C47F2000740F03A
:100E7000805046F8300C56F8300CC4F2000700F0F1
:100E8000805000900098386840F480703860FFF718
:100E900091FB05463868C00508D4FFF78BFB401B63
:100EA0000228F7D9032001B0F0BD00BF306810F46C
:100EB000407013D0216901F4407188420ED030682F
:100EC00040F64061C4F24721012220F440700A60DC
:100ED00000220A6030603068C00727D1206821698D
:100EE00056F8682C4FF6FF4701F4407322F4F812CD
:100EF000C0F6FF770F40B3F5407F08BF3A4346F88E
:100F0000682C32686FF31F3111433160000703D43E
:100F1000002001B0F0BD00BF207D40F64061C4F26A
:100F20004721C1F8A003002001B0F0BDFFF742FB4C
:100F3000054641F2883700BF30688007CED4FFF7FE
:100F400039FB401BB8424FF00300F5D9ECE7000035
:100F50002DE9F041002800F08B8043F60808C4F228
:100F600002080446D8F8F8030D4600F0070088424E
:100F700007D288F8F853D8F8F80300F00700A84221
:100F800076D12068810717D5410705D5D8F800101C
:100F900041F4E051C8F80010010705D5D8F8001059
:100FA00041F46041C8F80010D8F80010A26821F0A0
:100FB000F0011143C8F80010C0073FD1D8F8F8037A
:100FC00000F00700A84207D988F8F853D8F8F803CA
:100FD00000F00700A8424BD12068410707D5D8F898
:100FE0000010E26821F4E0511143C8F80010000736
:100FF00008D5D8F80000216920F4604040EAC1001B
:10100000C8F8000000F054F8D8F8001041F6940237
:10101000C1F30311C0F60002515C40F2080220FA4D
:1010200001F140F20400C2F200000068C2F20002C6
:101030001160FFF737FE0020BDE8F0816068811E77
:10104000022907D258F8081C89015CBF0120BDE8BD
:10105000F08111E0012807D158F8081C89035CBF12
:101060000120BDE8F08107E058F8081C890703D487
:101070000120BDE8F08100BFD8F8001021F0030185
:101080000843C8F80000FFF795FA064641F2883792
:10109000D8F80000616800F00C00B0EB810F8DD033
:1010A000FFF788FA801BB842F2D90320BDE8F0812F
:1010B00010B543F60404C4F20204606800F00C00AA
:1010C00008280BD0042819BF42F20040C0F2F400F7
:1010D00047F64000C0F27D1010BD00BF20682168B7
:1010E0002368490247F64001C0F27D1100F03F023B
:1010F000C3F388105CBF42F20041C0F2F401A1FBCF
:1011000000010023FFF7B8F821680222C1F3014172
:1011100002EB4101B0FBF1F010BD00002DE9F04100
:1011200082B000286AD00446007843F60006C00763
:10113000C4F202060BD0B06800F00C00042840F0A6
:10114000A1803068800302D56068002856D02078DE
:1011500080071AD5B06810F00C0F09D0B06800F005
:101160000C00082840F0A8807068400200F1A480BC
:101170003068800702D5E06801283FD130682169D6
:1011800020F0F80040EAC10030602078000739D430
:10119000207840074ED4A5695DB3B06800F00C001C
:1011A000082840F0BD80012D28D07068E16900F466
:1011B00080028A4222D1216A00F03F028A421DD178
:1011C00047F6C071626A0140B1EB821F16D1A26A74
:1011D0000023CFF6FF7303EBC23200F440316FF30C
:1011E0000F0291420AD1E16A00F07060B0EB016F2A
:1011F00004D1002002B0BDE8F08100BF012002B0A0
:10120000BDE8F0816069002840F20000C4F2472088
:1012100076D00121C0F8801EFFF7CCF9054600BF4B
:10122000706F8007B4D4FFF7C5F9401B0228F7D9C7
:10123000DDE000BF306C10F080580AD10020019032
:10124000306C40F080503064306C00F08050019081
:10125000019847F20007C4F200073868C00541D47E
:10126000386840F480703860FFF7A4F9054600BF85
:101270003868C00536D4FFF79DF9401B0228F7D91E
:10128000B5E000BFB06800F00C00082803D170681A
:1012900040023FF556AF6068B0F5803F07D0B0F52B
:1012A000A02F40F08D80306840F48020306030689E
:1012B00040F4803030608DE0E068002852D000209B
:1012C000C4F2472001210160FFF774F9054600BF11
:1012D000306880073FF552AFFFF76CF9401B0228DA
:1012E000F6D984E0A068012805D005284ED1306FDA
:1012F00040F004003067306F40F0010030674FE08D
:101300000021C0F8801EFFF755F90546706F800771
:101310007FF53EAFFFF74EF9401B0228F6D966E095
:101320000027C4F2472700203866FFF743F9022D53
:1013300005460BD1306880015ED5FFF73BF9401BB5
:1013400002284FF00300F5D954E700BF3068800150
:101350007FF54FAFFFF72EF9401B02284FF0030037
:10136000F4D947E70020C4F2472000210160FFF7CD
:1013700021F90546306880077FF507AFFFF71AF9B6
:10138000401B02284FF00300F4D933E7316F0028E7
:1013900021F001013167316F21F0040131674DD037
:1013A000FFF708F9054641F2883700BF306F800724
:1013B00056D4FFF7FFF8401BB842F7D917E000BF3B
:1013C0003168002821F480313160316821F48021B6
:1013D00031604FD0FFF7EEF8054600BF306880035C
:1013E0003FF5B5AEFFF7E6F8401B6428F6D90320B9
:1013F00002B0BDE8F08100BF04F11C052FCD084309
:101400000021CFF6FF7140EA821001EBC3316FF388
:101410000F0140EA05600843706001203866FFF75D
:10142000C9F80446306880013FF5E3AEFFF7C2F823
:10143000001B02284FF00300F4D9DBE6FFF7BAF8EF
:10144000054641F2883700BF306F800708D5FFF7A7
:10145000B1F8401BB8424FF00300F5D9CAE600BF0F
:10146000B8F1000F7FF497AE306C20F080503064FC
:1014700091E600BFFFF79EF8054600BF3068800385
:101480007FF565AEFFF796F8401B64284FF0030028
:10149000F4D9AFE6411E0020B0EB116F1CBF012054
:1014A00070474EF21002CEF2000251604EF6235108
:1014B000CEF20001F0230B7007219060116070479D
:1014C000FEE7000010B584B004460068816803910F
:1014D00094F84110042935D10399C90716D0416801
:1014E000490613D5C168E26A22F8021BE262618EE6
:1014F00001396186618E49B9416821F0600141601E
:10150000012084F841002046FFF79EFB0398400627
:1015100018D520684168890614D5416821F060011A
:10152000416000210291C168029180680290029896
:10153000012084F84100606C40F0020060642046A5
:10154000FFF77CF994F84100032817D1039880072E
:101550000DD520684168090609D5616A31F8022B6A
:10156000C2606162618D01396185618DF1B103985D
:10157000000703D520684168890601D404B010BD76
:10158000416821F0A0014160002101918068019033
:101590000198012084F84100606C40F0040120466D
:1015A000616404B0BDE81040FFF748B9416821F01C
:1015B000A0014160012084F841002046FFF746FB6E
:1015C00003980007DAD5D5E783B0002043F6300151
:1015D0000290C4F202010A6842F080020A600A68BE
:1015E00002F080020292029A01900A6842F001021F
:1015F0000A600A6802F001020192019A00900868EC
:1016000040F002000860086800F0020000900098B6
:1016100003B0704780B540F2700043F20001C2F29F
:101620000000C4F2010100234FF4FA5C4FF4007291
:1016300080E80E00C0E90333C0E905C3C0E9073301
:10164000FFF7FEF8002808BF80BDBDE88040FEF728
:10165000CDBE000080B540F2B80043F60001C2F2F2
:101660000000C4F200014FF4007200234FF4FA5C52
:1016700080E80E000121C0E90333C0E905C3C3615E
:101680000162FFF7DDF8002808BF80BDBDE880409B
:10169000FEF7ACBE80B540F2001043F60041C2F246
:1016A0000000C4F200014FF4007200234FF4FA5C12
:1016B00080E80E000121C0E90333C0E905C3C3611E
:1016C0000162FFF7BDF8002808BF80BDBDE880407B
:1016D000FEF78CBE80B540F2481043F20041C2F2E2
:1016E0000000C4F2010100234FF4FA5C4FF40072D1
:1016F00080E80E00C0E90333C0E905C3C0E9073341
:10170000FFF79EF8002808BF80BDBDE88040FEF7C7
:101710006DBE000080B540F2901045F20001C2F2AB
:101720000000C4F2010100234FF4FA5C4FF4007290
:1017300080E80E00C0E90333C0E905C3C0E9073300
:10174000FFF77EF8002808BF80BDBDE88040FEF7A7
:101750004DBE0000FEE70000FEE7000070470000FD
:1017600070470000FFF774BAB0B592B0002443F69A
:1017700040000B94CDE90944CDE907440594CDE937
:101780000344CDE901440094C4F20200016802253B
:1017900041F080510160006800F080500090009896
:1017A00047F200000094C4F20000016841F4404197
:1017B0000160006800F4404000900098012009900A
:1017C00010200A9008200E906420CDE90F05042017
:1017D000119006A80695CDE90C54FFF79FFC28B19F
:1017E000EFF3108072B600BFFEE700BF0F20CDE917
:1017F00001054FF48050CDE9040401A803210394AE
:10180000FFF7A6FB20B1EFF3108072B6FEE700BF32
:1018100012B0B0BD4EF68850CEF20000016841F41F
:101820007001016070470000FEE7000086B0FFF71E
:101830001DFAFFF799FF0020CDE904000120009078
:10184000C020029010200190022003906846FFF70C
:10185000CDFA28B1EFF3108072B600BFFEE700BFEB
:10186000FFF7B2FEFFF7D6FEFFF7F4FEFFF712FF19
:10187000FFF730FFFFF74EFFFEE7F1EE100A4FF6DD
:10188000FF71C0F2C03120EA010040F04070E1EE8B
:10189000100A70470000000000000000010203046D
:1018A00006070809C8180008000000201000000002
:1018B000D4010008D818000810000020D00700004C
:1018C000F00100080000000001000000100000000E
:0818D0000024F40000000000F8
:040000050800019955
:00000001FF
