:020000040800F2
:100000008008002039020008D91C0008CD1900081A
:10001000D51C0008E5030008991E00080000000038
:10002000000000000000000000000000E11C0008CB
:10003000F503000800000000DD1C0008E51C0008B6
:10004000530200085302000853020008530200083C
:10005000530200085302000853020008530200082C
:10006000530200085302000853020008530200081C
:10007000530200085302000853020008530200080C
:100080005302000853020008530200080000000059
:100090000000000000000000000000005302000803
:1000A00053020008530200085302000853020008DC
:1000B00053020008530200085302000853020008CC
:1000C00053020008530200085302000853020008BC
:1000D0005302000853020008530200080000000009
:1000E00053020008530200085302000800000000F9
:1000F00000000000000000000000000053020008A3
:1001000000000000530200085302000853020008D8
:1001100000000000000000000000000000000000DF
:10012000E9030008530200085302000853020008C4
:100130005302000800000000000000000000000062
:100140000000000000000000000000005302000852
:10015000530200085302000853020008530200082B
:1001600053020008530200080000000000000000D5
:10017000000000000000000000000000000000007F
:100180000000000053020008000000000000000012
:10019000530200085302000800F002F800F03CF897
:1001A0000AA090E8000C82448344AAF10107DA45D2
:1001B00001D100F031F8AFF2090EBAE80F0013F0E8
:1001C000010F18BFFB1A43F0010318471028000065
:1001D00030280000103A24BF78C878C1FAD85207F6
:1001E00024BF30C830C144BF04680C6070470000B1
:1001F0000023002400250026103A28BF78C1FBD830
:10020000520728BF30C148BF0B6070471FB501F0CF
:10021000BCFF1FBD10B510BD00F0AFF81146FFF7D1
:10022000F5FF01F08BFE00F0CDF803B4FFF7F2FF0D
:1002300003BC00F0D1F80000094880470948004796
:10024000FEE7FEE7FEE7FEE7FEE7FEE7FEE7FEE786
:10025000FEE7FEE704480549054A064B70470000E3
:10026000951D0008990100088002002080080020E8
:10027000800400208004002053EA020C00F0698012
:100280002DE9F04B4FF00006002B1FBFB3FA83F5AA
:1002900003FA05F424FA05F65E4012BF1643B2FADB
:1002A00082F502FA05F4C5F120051EBF22FA05FC0D
:1002B00044EA0C04203556EA044C4FEA144418BFB3
:1002C000641C4FF000084FF00009904271EB030CE2
:1002D00039D3002919BFB1FA81F701FA07F6B0FA4C
:1002E00080F700FA07F6C7F120071EBF20FA07FCC7
:1002F00046EA0C062037B6FBF4FCA7EB0507103FD7
:1003000007F01F0BCBF120062CFA06F60CFA0BFBBC
:1003100044BFB3460026202FA4BF5E464FF0000B1B
:100320005BEA060C08BF4FF0010B19EB0B0948EB19
:100330000608ABFB027C06FB02CC0BFB03CCC01B0C
:1003400071EB0C01C1E70B46024641464846BDE849
:10035000F08B13B5084318BF4FF0FF300146AFF3E1
:100360000080BDE81C407047704770477047000030
:10037000004870471000002070477546FFF7F8FFEF
:10038000AE4605006946534620F00700854618B082
:1003900020B5FFF75FFFBDE820404FF000064FF0AB
:1003A00000074FF000084FF0000BAC46ACE8C00966
:1003B000ACE8C009ACE8C009ACE8C00921F007010D
:1003C0008D46704710B50446AFF300802046BDE867
:1003D0001040FFF72ABF000001491820ABBEFEE71E
:1003E00026000200FEE7000040F27000C2F20000AA
:1003F00000F008B870470000EFF3108072B600BF3D
:10040000FEE70000F0B581B004460020009040F205
:100410000800C2F200000268D4E9166048F2B51381
:1004200037680821C1F64E3381403942A2FB0325CB
:100430000CD0226813685B0708D5136823F0040307
:100440001360B160616D41F001016165012181407E
:10045000394208D022685269120604D5B160616D34
:1004600041F00201616504218140394208D02268CF
:100470001268920704D5B160616D41F004016165B5
:1004800010218140394217D020680268120713D525
:10049000B16002680168520308D4C90508D4016834
:1004A00021F008010160216C21B905E008033FD467
:1004B000216C09B120468847E16D202000FA01F245
:1004C0003A4241D020680368DB063DD5B26094F81B
:1004D00035300268052B1BD122F0160202604269FA
:1004E00022F080024261226C0AB9A26C1AB1026841
:1004F00022F0080202603F208840B060012084F8AA
:100500003500216D0020002984F8340052D157E0D5
:100510000168520310D4C90512D4016821F01001FA
:100520000160012084F83500002084F8340007E0E1
:10053000A16C0029BED1BFE7080301D4616C00E0C3
:10054000E16B09B120468847606DC8B3606DC00794
:100550002ED0052084F835002068A90A026822F010
:1005600001020260009A01328A4200921AD802689F
:10057000D20717D0009A01328A42009212D802683C
:10058000D2070FD0009A01328A4200920AD802683C
:10059000D20707D0009A01328A42009202D802683C
:1005A000D207DFD1012084F83500002084F8340020
:1005B000E16C29B1204601B0BDE8F040084700BF1A
:1005C00001B0F0BD2DE9F041044600F081F9ECB135
:1005D0000546022084F835000020216884F83400A4
:1005E000086820F00100086021680868C00711D081
:1005F00000F06EF9401B0528F6D9032520230320BF
:10060000636584F83550BDE8F08100BF0120BDE886
:10061000F08100BF086848F23F02CFF21002D4E92F
:10062000013500EA020C04F10C0898E8C10143EA24
:100630000C032B431843D4E9072E304338431043AF
:10064000626A40EA0E00042A40EA08031CD1206BCB
:10065000D4E90A2E40EA0E00184308604869BEF14A
:10066000000F20F0030040EA020040F0040C11D01B
:10067000B8F5005F36D0B8F1000F45D1022A46D058
:10068000012A3BD032B942E00B60486920F00700F4
:1006900040EA020C01F0F8004AF6AB221038CAF624
:1006A000AA22A0FB02231A0942F2CE13C0F60003CD
:1006B0009A5C40F2FF335F284FF03F00C1F814C04E
:1006C00021EA030100FA02F088BF0431C4E91612DE
:1006D0008860002301250020636584F83550BDE85B
:1006E000F08100BF032AD5D8012540230120DFE88F
:1006F00002F0030E030500BF82E700BFAEF1C07039
:10070000B0FA80F0400904E0032A04D3C2D1CEF34A
:1007100000600028BED0012540230120636584F8D5
:100720003550BDE8F08100002DE9F04F82B000F1B6
:100730003E4241F2000502F1FF77C4F202050722B2
:1007400043F6004E4FEAB726A84208BF0422C4F27F
:10075000010E042E38BF4FEAB722012500260027DC
:100760004FF00008009208E008F101080437B8F1E2
:10077000100F06F1020600F0A7800C6805FA08F9D0
:1007800014EA090FF0D0D1F804B003220BF0030CE7
:10079000ACF10104B240012C6FEA020A10D8826861
:1007A000CC6802EA0A02B440224382604268CBF37A
:1007B000001422EA090204FA08F42243426005E028
:1007C000BCF1030F02D14FF0030C20E0C2688C682B
:1007D00002EA0A02B4402243BCF1020FC26016D101
:1007E0006FF0030202EA58020244D2F820C007F078
:1007F0001C050F230C69AB402CEA030304FA05F532
:100800002B431362D1F804B001250BF0030C0268EE
:100810000CFA06F302EA0A021A431BF4403F026094
:10082000A2D0002243F644030192C4F202031A68E4
:100830004FF6084C42F480421A601A68CFF6FF7CEB
:1008400002F480420192019A28F00302724452F8A5
:100850000C3007F00C050F24AC40A343009C04FAB5
:1008600005F52B4342F80C30DEF808204B6842EACD
:10087000090543F60C4CDC0258BF22EA0905CEF804
:100880000850C4F2010CDCF800209C0242EA090581
:1008900058BF22EA0905CCF80050DEF804209C037A
:1008A00042EA090558BF22EA0905CEF80450DEF8ED
:1008B0000020DB0342EA090558BF22EA0905CEF809
:1008C0000050012550E700BF02B0BDE8F08F0000E6
:1008D00040F27C20C2F20000006870472DE9F04130
:1008E00086B00446006844F20C05816843F204486F
:1008F000C4F20005C4F20008059108F57F77291FAE
:10090000B84208BF08F10401096808F5406604917F
:100910004168B8420391314604BF43F20441C4F236
:1009200000010A680292626842F40072B2F5007F28
:100930004CD10599890744BF03995FEA01617BD4D3
:100940000498C00721D0029840061ED52068E16AAD
:10095000B84208BF08F108052A6821F8022BE162B5
:10096000618E01396186618E79B9B842304608BF1F
:100970004046016821F060010160608D28B90120C6
:1009800084F84100204600F0E5F80498400644BF92
:1009900002985FEA80606BD40598000744BF039813
:1009A0005FEA806044D520684168B84221F0A00128
:1009B000416008BF4646316821F060013160002186
:1009C0000191806801900198B6E000BF049A9207F7
:1009D00044BF029A5FEA02626AD40598C00719D040
:1009E0000398400616D52068E16AC26821F8022BF8
:1009F000E162618E01396186618E59B9416821F0E9
:100A000060014160608D28B9012084F841002046D2
:100A100000F0A0F80598400644BF03985FEA8060A4
:100A200066D40498000744BF02985FEA806077D4D8
:100A300006B0BDE8F08100BF616A31F8022B616247
:100A4000C260618D01396185618D00297FF478AFC5
:100A5000416821F0A0014160608E00287FF470AFF2
:100A6000012084F84100204600F074F868E700BFD8
:100A700020683146B84208BF41460A6822F0600249
:100A80000A60416821F0A001416000210191C16824
:100A90000191806801900198012084F84100606C08
:100AA00040F002006064204600F056F874E700BF92
:100AB000626AB84232F8023B626208BF08F1080578
:100AC0002B60608D01386085608D00287FF485AFD4
:100AD000086820F0A0000860608E00287FF47DAFD9
:100AE000012084F84100204600F034F875E700BF8B
:100AF00020684168B84221F060014160304608BF7B
:100B00004046016821F0A0010160012084F8410005
:100B1000606C40F002006064204600F01DF880E741
:100B20002068B84208BF4646316821F0A001316014
:100B3000416821F060014160012084F84100606C4F
:100B400040F004012046616406B0BDE8F04100F0C9
:100B500003B8000070470000704700002DE9F04125
:100B600000285AD0044690F8410050B9002084F87B
:100B7000400041F6D110C0F600006063204600F04E
:100B8000A5F8022184F8411020686269C36940F623
:100B9000BF76B343022AC361016203D121690222F5
:100BA00044E000BFD4E90206002521284FF00100EF
:100BB00038BF012500F0D0FA2169B1F5007F07D1D7
:100BC000E368626963B10723002E08BF06230BE0C8
:100BD0000522002E08BF04222A44D040626905E0A5
:100BE0000823002E08BF07232B44D84000EB8000C9
:100BF0004000B0FBF2F04CF6CD420530CCF6CC42D2
:100C0000A0FB02206FF0FF0202EB101212F1FE0FA8
:100C100006D2606C40F0100060640120BDE8F081F5
:100C2000020900F00803206842EA431211430162FE
:100C3000C16940F6BF7CD4E9015821EA0C06E2689C
:100C400046EA0806A36916432E431E4346F400668F
:100C5000C661266A012E31D140F6DD0643F21C4EF4
:100C6000C0F60006C4F2000E66630EF579760EF546
:100C70004067B04204BF43F21C47C4F20007396822
:100C8000B04221EA0C01396044F22001C4F20001B3
:100C90004FF0020008BF0EF10401086038686FF4DD
:100CA00000714FF400660D4208BF4FF410663043E8
:100CB00040EA08001043184380B238600020012148
:100CC000606484F84110BDE8F08100002DE9F04136
:100CD00086B00446006842F6FF71C4F20101884202
:100CE0004FF000010591CDE90311CDE9011167DD58
:100CF00045F20001C4F20101884200F0B98043F2DC
:100D00000041C4F20101884200F0F68043F2000184
:100D1000C4F20101884240F0EC80002643F6300026
:100D20000096C4F20200416941F480514161416979
:100D300001F48051009100990096016841F0010191
:100D40000160006801A900F0010000900098B02047
:100D500001900220CDE902060520059040F20040F6
:100D6000C4F20200A0F580600496FFF7DDFC40F2BB
:100D7000700546F21040C2F20005C4F202004FF0C6
:100D8000C0614FF4805385E8430005F114004FF42F
:100D900080624FF4804C4FF4807E80E808502846F3
:100DA000C5E90362C5E90866FFF70CFC002818BF17
:100DB000FFF722FBE563AC6306B0BDE8F08100BF3E
:100DC00043F60001C4F20001884200F0CD8043F6F2
:100DD0000041C4F20001884240F08B80002643F6B7
:100DE00030000096C4F20200016940F2004441F470
:100DF000004101610169C4F2020401F40041009163
:100E000000990096016801AD41F00101016001689F
:100E1000022701F0010100910099009601684FF04E
:100E2000060841F0020101600068294600F0020056
:100E3000009000984FF400400190A4F58060CDE947
:100E400002760496CDF81480FFF76EFC2820CDE9D9
:100E5000010720462946CDE90366CDF81480FFF747
:100E600063FC1020CDE90107CDE903660720ADE062
:100E7000002643F630000096C4F20200416940F2B9
:100E8000004441F4801141614169C4F2020401F45B
:100E90008011009100990096016801AD41F00201B6
:100EA000016001684FF0020801F002010091009911
:100EB00000960168062741F001010160006829469B
:100EC00000F0010000900098032001902046CDE939
:100ED000028604960597FFF727FC4FF48060CDE962
:100EE0000108A4F580602946CDE903660597FFF760
:100EF0001BFC06B0BDE8F081002643F630000096EA
:100F0000C4F20200416940F2004441F400514161E1
:100F10004169C4F2020401F4005100910099009665
:100F2000016801AD41F0010101600168022701F093
:100F30000101009100990096016841F002010160F1
:100F40000068294600F002000090009805200590F6
:100F5000A4F58060CDE90177CDE90366FFF7E4FBF6
:100F60004FF440502DE000BF002643F630000096BD
:100F7000C4F20200016940F2004441F48041016181
:100F80000169C4F2020401F48041009100990096C5
:100F9000016801AD41F0020101600068022700F024
:100FA0000200009000984FF4064001900520059043
:100FB00020462946CDE902760496FFF7B5FB4FF4AB
:100FC0008040CDE901070620CDE903660590204663
:100FD0002946FFF7A9FB06B0BDE8F0817047000085
:100FE0007047000040F2000040F27C21C2F2000095
:100FF000C2F2000100780A681044086070470000DF
:1010000080B543F60040C4F20200016841F400716B
:101010000160016841F480610160016841F4807100
:101020000160032000F088F80F2000F005F800F0C0
:1010300027F8002080BD000070B540F20006C2F223
:10104000000640F208013278C2F200014FF47A73D0
:101050000968B3FBF2F20446B1FBF2F1084600F076
:101060001DFC0F2C4FF0010508D838B94FF0FF30A8
:1010700021460022002500F033F87460284670BD38
:1010800082B0002043F640010190C4F202014A6898
:1010900042F480424A604A6802F480420192019A16
:1010A0000090086840F080500860086800F08050A8
:1010B0000090009802B07047002848BF7047C1B246
:1010C00000F01F00012202FA00F04EF20012CEF2F0
:1010D000000242EAD10121F00301086070470000DC
:1010E00010B54EF60C5CCEF2000CDCF80030C3F309
:1010F000022E8EF00704042C28BF0424BEF1030343
:101100004FF0FF3E0EFA04F438BF0023A14399408C
:101110000EFA03F39A43114300F00F0200F160430B
:101120000901043A03F564436244002848BF02F110
:101130000C03197010BD00004EF60C51CEF20001E8
:101140000A684FF6FF031A4060F30A2242F08060FB
:1011500040F0FD7008607047012823D143F68400F9
:10116000C4F2020050F87C1C09021BD450F8801C09
:101170000268490247F64001C0F27D1102F03F02C9
:101180005CBF42F20041C0F2F4010368B1FBF2F12E
:101190000068C3F388125143C0F30270B1FBF0F052
:1011A000704700BF00207047F0B581B0044600686A
:1011B00010F0050F2DD06827C4F2472743F67006BC
:1011C0000020C4F202063860FFF782FB054600BF2C
:1011D00056F8700C000105D5FFF77AFB401B02287A
:1011E000F6D93DE0221D07CA40EA811040EA0270AC
:1011F000706101203860FFF76BFB054656F8700CF4
:10120000000105D4FFF764FB401B0228F6D927E054
:101210002068810758D543F670060020C4F2020604
:10122000009056F8300C47F2000740F0805046F826
:10123000300C56F8300CC4F2000700F080500090DB
:101240000098386840F480703860FFF741FB05462D
:101250003868C00508D4FFF73BFB401B0228F7D9CC
:10126000032001B0F0BD00BF306810F4407013D00F
:10127000216901F4407188420ED0306840F6406127
:10128000C4F24721012220F440700A6000220A6063
:1012900030603068C00727D12068216956F8682C73
:1012A0004FF6FF4701F4407322F4F812C0F6FF77BF
:1012B0000F40B3F5407F08BF3A4346F8682C3268C8
:1012C0006FF31F3111433160000703D4002001B0D8
:1012D000F0BD00BF207D40F64061C4F24721C1F857
:1012E000A003002001B0F0BDFFF7F2FA054641F27D
:1012F000883700BF30688007CED4FFF7E9FA401B7B
:10130000B8424FF00300F5D9ECE700002DE9F041B9
:10131000002800F08B8043F60808C4F20208044657
:10132000D8F8F8030D4600F00700884207D288F885
:10133000F853D8F8F80300F00700A84276D12068E7
:10134000810717D5410705D5D8F8001041F4E051C1
:10135000C8F80010010705D5D8F8001041F4604125
:10136000C8F80010D8F80010A26821F0F00111436D
:10137000C8F80010C0073FD1D8F8F80300F0070004
:10138000A84207D988F8F853D8F8F80300F0070006
:10139000A8424BD12068410707D5D8F80010E26871
:1013A00021F4E0511143C8F80010000708D5D8F81F
:1013B0000000216920F4604040EAC100C8F8000044
:1013C00000F07CF8D8F8001042F2B612C1F3031115
:1013D000C0F60002515C40F2080220FA01F140F22E
:1013E0000400C2F200000068C2F200021160FFF7C0
:1013F00023FE0020BDE8F0816068811E022907D22B
:1014000058F8081C89015CBF0120BDE8F08111E09B
:10141000012807D158F8081C89035CBF0120BDE8EA
:10142000F08107E058F8081C890703D40120BDE8C3
:10143000F08100BFD8F8001021F003010843C8F87C
:101440000000FFF745FA064641F28837D8F8000059
:10145000616800F00C00B0EB810F8DD0FFF738FA17
:10146000801BB842F2D90320BDE8F08140F20800A9
:1014700043F60801C2F20000C4F2020100680968E4
:1014800042F2C612C1F38221C0F60002515CC8408C
:101490007047000040F2080043F60801C2F2000065
:1014A000C4F202010068096842F2C612C1F3423177
:1014B000C0F60002515CC8407047000010B543F60A
:1014C0000404C4F20204606800F00C0008280BD089
:1014D000042819BF42F20040C0F2F40047F6400071
:1014E000C0F27D1010BD00BF20682168236849024A
:1014F00047F64001C0F27D1100F03F02C3F38810AF
:101500005CBF42F20041C0F2F401A1FB00010023E4
:10151000FEF7B2FE21680222C1F3014102EB410154
:10152000B0FBF1F010BD00002DE9F04182B00028C1
:1015300068D00446007843F60006C007C4F20206ED
:101540000BD0B06800F00C00042840F09F80306899
:10155000800302D56068002854D0207880071AD50F
:10156000B06810F00C0F09D0B06800F00C0008282B
:1015700040F0A6807068400200F1A28030688007C9
:1015800002D5E06801283DD13068216920F0F800DB
:1015900040EAC10030602078000737D42078400747
:1015A0004CD4A56955B3B06800F00C00082840F091
:1015B000BB80012D26D07068E16900F480028A4268
:1015C00020D1216A00F03F028A421BD147F6C07148
:1015D000626A0140B1EB821F14D1A16A4FF6FF731A
:1015E000C903994300F44032A1F580318A4209D100
:1015F000E16A00F07060B0EB016F03D1002002B02F
:10160000BDE8F081012002B0BDE8F08160690028EA
:1016100040F20000C4F2472076D00121C0F8801EBD
:10162000FFF756F9054600BF706F8007B6D4FFF785
:101630004FF9401B0228F7D9DDE000BF306C10F0F5
:1016400080580AD100200190306C40F08050306406
:10165000306C00F080500190019847F20007C4F20E
:1016600000073868C00541D4386840F4807038609D
:10167000FFF72EF9054600BF3868C00536D4FFF7DE
:1016800027F9401B0228F7D9B5E000BFB06800F089
:101690000C00082803D1706840023FF558AF60681D
:1016A000B0F5803F07D0B0F5A02F40F08D803068B6
:1016B00040F480203060306840F4803030608DE04D
:1016C000E068002852D00020C4F2472001210160C8
:1016D000FFF7FEF8054600BF306880073FF554AFBE
:1016E000FFF7F6F8401B0228F6D984E0A06801282D
:1016F00005D005284ED1306F40F004003067306FC0
:1017000040F0010030674FE00021C0F8801EFFF775
:10171000DFF80546706F80077FF540AFFFF7D8F818
:10172000401B0228F6D966E00027C4F247270020B4
:101730003866FFF7CDF8022D05460BD130688001E1
:101740005ED5FFF7C5F8401B02284FF00300F5D91E
:1017500055E700BF306880017FF550AFFFF7B8F85C
:10176000401B02284FF00300F4D948E70020C4F2E0
:10177000472000210160FFF7ABF80546306880077D
:101780007FF509AFFFF7A4F8401B02284FF00300D4
:10179000F4D934E7316F002821F001013167316F4E
:1017A00021F0040131674DD0FFF792F8054641F270
:1017B000883700BF306F800756D4FFF789F8401B89
:1017C000B842F7D917E000BF3168002821F4803112
:1017D0003160316821F4802131604FD0FFF778F813
:1017E000054600BF306880033FF5B7AEFFF770F8DD
:1017F000401B6428F6D9032002B0BDE8F08100BF89
:1018000004F11C052FCD084340EA8210D9034FF69E
:10181000FF729143A1F5803140EA05600843706092
:1018200001203866FFF754F8044600BF3068800195
:101830003FF5E4AEFFF74CF8001B02284FF0030021
:10184000F4D9DCE6FFF744F8054641F2883700BFDB
:10185000306F800708D5FFF73BF8401BB8424FF0C8
:101860000300F5D9CBE600BFB8F1000F7FF499AEC5
:10187000306C20F08050306493E600BFFFF728F80A
:10188000054600BF306880037FF567AEFFF720F89C
:10189000401B64284FF00300F4D9B0E6411E00203D
:1018A000B0EB116F1CBF012070474EF21002CEF258
:1018B000000251604EF62351CEF20001F0230B706E
:1018C0000721906011607047002804BF0120704715
:1018D00010B5044690F83D0028B9002084F83C007B
:1018E000204600F021F8242084F83D002068C168DB
:1018F00021F40051C160204600F056FA20680169C9
:1019000021F490410161416921F02A014161C168DE
:1019100041F40051C16000202021206484F83D1072
:1019200084F83E1010BD00002DE9F04385B000683A
:1019300041F20005C4F20105A84203D005B0BDE89C
:10194000F08300BF002643F630000096C4F2020088
:1019500041696C4641F01001416141694FF0020854
:1019600001F0100100910099009601684FF0030901
:1019700041F0010101600168072701F001010091B8
:1019800000990096016841F002010160006821465B
:1019900000F00200009000984FF40070009005F5F0
:1019A0007040CDE90186CDF80C900497FEF7BCFE9F
:1019B0008020CDE9000805F574402146CDE9026993
:1019C0000497FEF7B1FE05B0BDE8F083FEE7000026
:1019D00010B584B0044600688168039194F8411002
:1019E000042935D10399C90716D04168490613D592
:1019F000C168E26A22F8021BE262618E01396186E7
:101A0000618E49B9416821F060014160012084F88C
:101A100041002046FFF7E2FA0398400618D52068F7
:101A20004168890614D5416821F0600141600021B8
:101A30000291C1680291806802900298012084F8A6
:101A40004100606C40F0020060642046FFF784F8BB
:101A500094F84100032817D1039880070DD520681A
:101A60004168090609D5616A31F8022BC2606162DA
:101A7000618D01396185618DF1B10398000703D54E
:101A800020684168890601D404B010BD416821F086
:101A9000A00141600021019180680190019801201E
:101AA00084F84100606C40F004012046616404B099
:101AB000BDE81040FFF750B8416821F0A001416037
:101AC000012084F841002046FFF78AFA03980007B6
:101AD000DAD5D5E780B582B00020019043F630001A
:101AE000C4F202000168002241F480010160006834
:101AF000002100F48000019001983820FFF7F0FAEF
:101B0000382002B0BDE88040FFF7D6BA83B000208D
:101B100043F630010290C4F202010A6842F08002EA
:101B20000A600A6802F080020292029A01900A6832
:101B300042F001020A600A6802F001020192019A71
:101B40000090086840F002000860086800F0020099
:101B50000090009803B0704780B540F2D00043F287
:101B60000001C2F20000C4F2010100234FF4FA5E4A
:101B70004FF440724FF0030C80E80E10C0E9043EB1
:101B8000C0E906330362FEF7E9FF002808BF80BD05
:101B9000BDE88040FEF730BC80B540F2181043F637
:101BA0000001C2F20000C4F200014FF400720023F1
:101BB0004FF4FA5C80E80E000121C0E90333C0E96C
:101BC00005C3C3610162FEF7C9FF002808BF80BDDD
:101BD000BDE88040FEF710BC80B540F2601043F6CF
:101BE0000041C2F20000C4F200014FF40072002371
:101BF0004FF4FA5C80E80E000121C0E90333C0E92C
:101C000005C3C3610162FEF7A9FF002808BF80BDBC
:101C1000BDE88040FEF7F0BB80B540F2A81043F26B
:101C20000041C2F20000C4F2010100234FF4FA5C4B
:101C30004FF4007280E80E00C0E90333C0E905C329
:101C4000C0E90733FEF78AFF002808BF80BDBDE862
:101C50008040FEF7D1BB000080B540F2F01045F2A5
:101C60000001C2F20000C4F2010100234FF4FA5C4B
:101C70004FF4007280E80E00C0E90333C0E905C3E9
:101C8000C0E90733FEF76AFF002808BF80BDBDE842
:101C90008040FEF7B1BB000080B540F2382041F231
:101CA0000001C2F20000C4F2010100234FF00C0C4D
:101CB0004FF4E13280E80E00C0E90333C0E905C308
:101CC000C361FFF701FE002808BF80BDBDE880406A
:101CD000FEF792BBFEE70000FEE700007047000041
:101CE00070470000FFF77EB9B0B592B0002443F60C
:101CF00040000B94CDE90944CDE907440594CDE9B2
:101D00000344CDE901440094C4F2020001680225B5
:101D100041F080510160006800F080500090009810
:101D200047F200000094C4F20000016841F4404111
:101D30000160006800F44040009000980120099084
:101D400010200A9008200E906420CDE90F05042091
:101D5000119006A80695CDE90C54FFF7E5FB28B1D4
:101D6000EFF3108072B600BFFEE700BF0F20CDE991
:101D700001054FF48050CDE9040401A80321039428
:101D8000FFF7C4FA20B1EFF3108072B6FEE700BF90
:101D900012B0B0BD4EF68850CEF20000016841F49A
:101DA000700101607047000010B504460068D4E976
:101DB00002C22369016921F4405111430161626942
:101DC00043EA0C01E3691143C268194349F20C6309
:101DD0009A431143C1604169A26921F4407141F203
:101DE0000043114340F48062C4F201039A4241610E
:101DF00002D1FFF74FFB01E0FFF738FBE1696368B1
:101E00001922B1F5004FA0FB020123D15A00DB0FCC
:101E1000FEF732FA48F21F51C5F2EB11A0FB012385
:101E20005A094FF69C73C0F6FF7303F1805302FB0F
:101E30000300322303EBC000A0FB01014FF4F87054
:101E400000EA111000EB0210C1F3421108442168AE
:101E5000886010BD9A009B0FFEF70EFA48F21F51E2
:101E6000C5F2EB11A0FB01235A094FF69C73C0F693
:101E7000FF7302FB0300322303EB0010A0FB010100
:101E8000F02000EA511000EB0210C1F343110844A6
:101E90002168886010BD0000FEE7F0B581B04FF604
:101EA0008311C3F6226100F021F9044600F0D2F854
:101EB000054620460021002700F0A0F8002818BFA2
:101EC000013D284600F0D4F80146204600F06AF9AA
:101ED0004FF0884100F00AF9054600F0C2F80446C8
:101EE00028464FF0444100F05DF80646B7EB542F0A
:101EF0000CBF2E460024204600F0C1F801463046B3
:101F000000F050F905464FF07E50294600F04AF99E
:101F100042F2D817C0F6000757F8241000F0E6F890
:101F2000064607EB84004168284600F0DFF80146CA
:101F3000304600F037F801B0F0BD000086B0FFF782
:101F40005FF8FFF7D1FE0020CDE9040001200090EA
:101F5000C020029010200190022003906846FFF7F5
:101F600023F928B1EFF3108072B600BFFEE700BF7F
:101F7000FFF7CCFDFFF7AEFDFFF7EEFDFFF70CFE20
:101F8000FFF72AFEFFF748FEFFF766FEFFF784FE25
:101F90009FED038AB0EE480AFFF77FFFFAE700BF24
:101FA000920A063F00EE100A00EE901A30EE200A68
:101FB00010EE100A704710B500F034F80CBF012085
:101FC000002010BD10B500F02DF814BF0120002036
:101FD00010BD10B500F05AF88CBF0120002010BDD4
:101FE00010B500F053F82CBF0120002010BD10B533
:101FF00000F064F894BF0120002010BD10B500F07F
:102000005DF834BF0120002010BD401058BFC0F162
:102010004040491058BFC1F140418142EFF3008078
:102020007047000000EE100A00EE901AB4EE600A4D
:10203000F1EE10FA78BF704700F000B810B500F06C
:102040005EF800BF922449004FF000504FF08051DD
:10205000FFF7DBBF00EE100ABDEEC01A11EE100A4A
:10206000704700EE100ABCEEC01A11EE100A70475D
:1020700000EE100AB8EEC00A10EE100A704700EE2B
:10208000100AB8EE400A10EE100A704700EE100A6F
:1020900000EE901AB4EE600AF1EE10FA78BF7047C5
:1020A00000F000B810B500F02AF800BF92244900F3
:1020B0004FF080504FF00051FFF7A7BF00EE100A1D
:1020C00000EE901AB4EE600AF1EE10FA78BF704795
:1020D000AFF3008010B500F012F800BF9224490061
:1020E0004FF000504FF08051FFF78FBF00EE100A05
:1020F00000EE901A20EE200A10EE100A70470EF142
:10210000020E2EF0030E5EF8044B244204D44FEA74
:102110004102B2F17F4F11D84FEA4003B3F17F4F34
:102120000CD80ED14FEAD07C0CEB4C0C0CF1020C0D
:10213000B2F17F4F08BF4CEBD17C04E04FF0080CAC
:1021400001E04FEAD17C0CEB4C0324FA03F404F0D9
:102150000704B4F1040C06D20EEB840CBDE8104069
:102160004CF0010C6047DFE80CF0070802024FF06A
:102170000040A0F5800010BD0846420018BFD2F113
:10218000807288BF00F0004010BDF1EE100A4FF6DB
:10219000FF71C0F2C03120EA010040F04070E1EE72
:1021A000100A704700EE100A00EE901A30EE600A36
:1021B00010EE100A7047000000000000000001024D
:1021C00003040607080900000000010203040006DA
:1021D000101600061016000000000000920E493C88
:1021E000B10AC93C2BC3163D2EFB483D752B7B3DE8
:1021F00004A9963D80B6AF3D36BDC83D2FBCE13D3C
:1022000073B2FA3D87CF093E8340163EB5AB223EFE
:10221000A2102F3ECF6E3B3EC2C5473E0115543E35
:10222000135C603E7F9A6C3ECCCF783EC07D823E90
:10223000938E883E229A8E3E32A0943E86A09A3E8D
:10224000E59AA03E128FA63ED47CAC3EEF63B23E30
:102250002A44B83E491DBE3E15EFC33E53B9C93EA0
:10226000CA7BCF3E4136D53E80E8DA3E4F92E03E13
:102270007533E63EBBCBEB3EEA5AF13ECBE0F63E91
:10228000275DFC3EE4E7003F3D9C033F824B063F59
:102290009BF5083F6B9A0B3FDA390E3FCDD3103FC9
:1022A0002A68133FD9F6153FC07F183FC6021B3F6F
:1022B000D17F1D3FCBF61F3F9967223F25D2243F98
:1022C0005636273F1594293F4AEB2B3FDE3B2E3FE6
:1022D000BB85303FC9C8323FF304353F233A373F0F
:1022E0004268393F3B8F3B3FF9AE3D3F67C73F3FB9
:1022F00070D8413F01E2433F03E4453F65DE473F7D
:1023000012D1493FF8BB4B3F029F4D3F207A4F3FD0
:102310003D4D513F4918533F31DB543FE595563F02
:102320005348583F6AF2593F1A945B3F532D5D3F23
:1023300005BE5E3F2146603F97C5613F5A3C633F03
:1023400059AA643F880F663FD86B673F3CBF683F20
:10235000A7096A3F0C4B6B3F5E836C3F93B26D3FA6
:102360009ED86E3F73F56F3F0809713F5213723F5D
:102370004714733FDD0B743F0BFA743FC6DE753FA5
:1023800007BA763FC58B773FF853783F9812793F6D
:102390009DC7793F02737A3FBE147B3FCDAC7B3F34
:1023A000283B7C3FC9BF7C3FAC3A7D3FCCAB7D3FF7
:1023B00023137E3FB0707E3F6DC47E3F580E7F3F3B
:1023C0006D4E7F3FAB847F3F0FB17F3F97D37F3F01
:1023D00043EC7F3F11FB7F3F0000803F11FB7F3FBD
:1023E00043EC7F3F97D37F3F0FB17F3FAB847F3F6D
:1023F0006D4E7F3F580E7F3F6DC47E3FB0707E3F75
:1024000023137E3FCCAB7D3FAC3A7D3FC9BF7C3FC1
:10241000283B7C3FCDAC7B3FBE147B3F02737A3FB1
:102420009DC7793F9812793FF853783FC58B773F26
:1024300007BA763FC6DE753F0BFA743FDD0B743F7B
:102440004714733F5213723F0809713F73F56F3F92
:102450009ED86E3F93B26D3F5E836C3F0C4B6B3FDB
:10246000A7096A3F3CBF683FD86B673F880F663F4C
:1024700059AA643F5A3C633F97C5613F2146603F7C
:1024800005BE5E3F532D5D3F1A945B3F6AF2593F94
:102490005348583FE595563F31DB543F4918533F69
:1024A0003D4D513F207A4F3F029F4D3FF8BB4B3F80
:1024B00012D1493F65DE473F03E4453F01E2433F18
:1024C00070D8413F67C73F3FF9AE3D3F3B8F3B3F31
:1024D0004268393F233A373FF304353FC9C8323F9A
:1024E000BB85303FDE3B2E3F4AEB2B3F1594293F07
:1024F0005636273F25D2243F9967223FCBF61F3F10
:10250000D17F1D3FC6021B3FC07F183FD9F6153F44
:102510002A68133FCDD3103FDA390E3F6B9A0B3F39
:102520009BF5083F824B063F3D9C033FE4E7003F9D
:10253000275DFC3ECBE0F63EEA5AF13EBBCBEB3EDC
:102540007533E63E4F92E03E80E8DA3E4136D53EB6
:10255000CA7BCF3E53B9C93E15EFC33E491DBE3EAF
:102560002A44B83EEF63B23ED47CAC3E128FA63E06
:10257000E59AA03E86A09A3E32A0943E229A8E3ED4
:10258000938E883EC07D823ECCCF783E7F9A6C3E53
:10259000135C603E0115543EC2C5473ECF6E3B3EC4
:1025A000A2102F3EB5AB223E8340163E87CF093E98
:1025B00073B2FA3D2FBCE13D36BDC83D80B6AF3D9C
:1025C00004A9963D752B7B3D2EFB483D2BC3163D44
:1025D000B10AC93C920E493C00000000920E49BC71
:1025E000B10AC9BC2BC316BD2EFB48BD752B7BBDE4
:1025F00004A996BD80B6AFBD36BDC8BD2FBCE1BD38
:1026000073B2FABD87CF09BE834016BEB5AB22BEFA
:10261000A2102FBECF6E3BBEC2C547BE011554BE31
:10262000135C60BE7F9A6CBECCCF78BEC07D82BE8C
:10263000938E88BE229A8EBE32A094BE86A09ABE89
:10264000E59AA0BE128FA6BED47CACBEEF63B2BE2C
:102650002A44B8BE491DBEBE15EFC3BE53B9C9BE9C
:10266000CA7BCFBE4136D5BE80E8DABE4F92E0BE0F
:102670007533E6BEBBCBEBBEEA5AF1BECBE0F6BE8D
:10268000275DFCBEE4E700BF3D9C03BF824B06BF55
:102690009BF508BF6B9A0BBFDA390EBFCDD310BFC5
:1026A0002A6813BFD9F615BFC07F18BFC6021BBF6B
:1026B000D17F1DBFCBF61FBF996722BF25D224BF94
:1026C000563627BF159429BF4AEB2BBFDE3B2EBFE2
:1026D000BB8530BFC9C832BFF30435BF233A37BF0B
:1026E000426839BF3B8F3BBFF9AE3DBF67C73FBFB5
:1026F00070D841BF01E243BF03E445BF65DE47BF79
:1027000012D149BFF8BB4BBF029F4DBF207A4FBFCC
:102710003D4D51BF491853BF31DB54BFE59556BFFE
:10272000534858BF6AF259BF1A945BBF532D5DBF1F
:1027300005BE5EBF214660BF97C561BF5A3C63BFFF
:1027400059AA64BF880F66BFD86B67BF3CBF68BF1C
:10275000A7096ABF0C4B6BBF5E836CBF93B26DBFA2
:102760009ED86EBF73F56FBF080971BF521372BF59
:10277000471473BFDD0B74BF0BFA74BFC6DE75BFA1
:1027800007BA76BFC58B77BFF85378BF981279BF69
:102790009DC779BF02737ABFBE147BBFCDAC7BBF30
:1027A000283B7CBFC9BF7CBFAC3A7DBFCCAB7DBFF3
:1027B00023137EBFB0707EBF6DC47EBF580E7FBF37
:1027C0006D4E7FBFAB847FBF0FB17FBF97D37FBFFD
:1027D00043EC7FBF11FB7FBF000080BF11FB7FBFB9
:1027E00043EC7FBF97D37FBF0FB17FBFAB847FBF69
:1027F0006D4E7FBF580E7FBF6DC47EBFB0707EBF71
:1028000023137EBFCCAB7DBFAC3A7DBFC9BF7CBFBD
:10281000283B7CBFCDAC7BBFBE147BBF02737ABFAD
:102820009DC779BF981279BFF85378BFC58B77BF22
:1028300007BA76BFC6DE75BF0BFA74BFDD0B74BF77
:10284000471473BF521372BF080971BF73F56FBF8E
:102850009ED86EBF93B26DBF5E836CBF0C4B6BBFD7
:10286000A7096ABF3CBF68BFD86B67BF880F66BF48
:1028700059AA64BF5A3C63BF97C561BF214660BF78
:1028800005BE5EBF532D5DBF1A945BBF6AF259BF90
:10289000534858BFE59556BF31DB54BF491853BF65
:1028A0003D4D51BF207A4FBF029F4DBFF8BB4BBF7C
:1028B00012D149BF65DE47BF03E445BF01E243BF14
:1028C00070D841BF67C73FBFF9AE3DBF3B8F3BBF2D
:1028D000426839BF233A37BFF30435BFC9C832BF96
:1028E000BB8530BFDE3B2EBF4AEB2BBF159429BF03
:1028F000563627BF25D224BF996722BFCBF61FBF0C
:10290000D17F1DBFC6021BBFC07F18BFD9F615BF40
:102910002A6813BFCDD310BFDA390EBF6B9A0BBF35
:102920009BF508BF824B06BF3D9C03BFE4E700BF99
:10293000275DFCBECBE0F6BEEA5AF1BEBBCBEBBED8
:102940007533E6BE4F92E0BE80E8DABE4136D5BEB2
:10295000CA7BCFBE53B9C9BE15EFC3BE491DBEBEAB
:102960002A44B8BEEF63B2BED47CACBE128FA6BE02
:10297000E59AA0BE86A09ABE32A094BE229A8EBED0
:10298000938E88BEC07D82BECCCF78BE7F9A6CBE4F
:10299000135C60BE011554BEC2C547BECF6E3BBEC0
:1029A000A2102FBEB5AB22BE834016BE87CF09BE94
:1029B00073B2FABD2FBCE1BD36BDC8BD80B6AFBD98
:1029C00004A996BD752B7BBD2EFB48BD2BC316BD40
:1029D000B10AC9BC920E49BC00000080002A000860
:1029E0000000002010000000D4010008102A000898
:1029F0001000002070080000F00100080000000036
:102A000001000000100000000024F400000000009D
:040000050800019955
:00000001FF
